:020000040800F2
:1000000000500020011F0008151E00081B1E0008DC
:10001000211E0008271E00082D1E000800000000F9
:100020000000000000000000000000005174000803
:10003000331E000800000000317600083F1E000853
:10004000491F0008491F0008491F0008491F0008F0
:10005000491F0008491F0008491F0008491F0008E0
:10006000591E0008671E0008491F0008491F0008A4
:10007000491F0008491F0008491F0008491F0008C0
:10008000491F0008491F0008491F0008491F0008B0
:10009000491F0008491F0008491F0008491F0008A0
:1000A000491F0008491F0008491F0008491F000890
:1000B000491F0008491F0008491F0008491F000880
:1000C000491F0008491F0008491F0008491F000870
:1000D000491F0008751E0008491F0008491F000835
:1000E000491F0008491F0008491F000800000000C0
:1000F0000000000000000000000000000000000000
:0C01000000000000000000005FF808F1A3
:1001100010B5054C237833B9044B13B10448AFF341
:1001200000800123237010BD780000200000000033
:100130009486000808B5034B1BB103490348AFF38D
:10014000008008BD000000007C00002094860008AC
:1001500010F8012B11F8013B012A28BF9A42F7D071
:10016000D01A7047034613F8012B002AFBD1181A46
:10017000013870474FF0FF0C1CEAD0521EBF1CEA3A
:10018000D15392EA0C0F93EA0C0F6FD01A4480EA15
:10019000010C400218BF5FEA41211ED04FF00063FE
:1001A00043EA501043EA5111A0FB01310CF000402A
:1001B000B1F5000F3EBF490041EAD3715B0040EA50
:1001C000010062F17F02FD2A1DD8B3F1004F40EB20
:1001D000C25008BF20F00100704790F0000F0CF0F3
:1001E000004C08BF49024CEA502040EA51207F3AB7
:1001F000C2BFD2F1FF0340EAC250704740F4000092
:100200004FF00003013A5DDC12F1190FDCBF00F082
:1002100000407047C2F10002410021FA02F1C2F130
:10022000200200FA02FC5FEA310040F1000053EACC
:100230004C0308BF20EADC70704792F0000F00F01A
:10024000004C02BF400010F4000F013AF9D040EA20
:100250000C0093F0000F01F0004C02BF490011F4B4
:10026000000F013BF9D041EA0C018FE70CEAD153B2
:1002700092EA0C0F18BF93EA0C0F0AD030F0004C32
:1002800018BF31F0004CD8D180EA010000F00040E6
:10029000704790F0000F17BF90F0004F084691F0A4
:1002A000000F91F0004F14D092EA0C0F01D14202DE
:1002B0000FD193EA0C0F03D14B0218BF084608D1A7
:1002C00080EA010000F0004040F0FE4040F40000F1
:1002D000704740F0FE4040F44000704781F000411C
:1002E00002E000BF83F0004330B54FEA41044FEA1B
:1002F000430594EA050F08BF90EA020F1FBF54EAB6
:10030000000C55EA020C7FEA645C7FEA655C00F051
:10031000E2804FEA5454D4EB5555B8BF6D420CDD22
:100320002C4480EA020281EA030382EA000083EAA5
:10033000010180EA020281EA0303362D88BF30BD45
:1003400011F0004F4FEA01314FF4801C4CEA11319B
:1003500002D0404261EB410113F0004F4FEA0333FA
:100360004CEA133302D0524263EB430394EA050F85
:1003700000F0A780A4F10104D5F1200E0DDB02FAF4
:100380000EFC22FA05F2801841F1000103FA0EF288
:10039000801843FA05F359410EE0A5F120050EF14E
:1003A000200E012A03FA0EFC28BF4CF0020C43FA7F
:1003B00005F3C01851EBE37101F0004507D54FF08C
:1003C000000EDCF1000C7EEB00006EEB0101B1F5DC
:1003D000801F1BD3B1F5001F0CD349085FEA300022
:1003E0004FEA3C0C04F101044FEA445212F5800F2D
:1003F00080F09A80BCF1004F08BF5FEA500C50F1CA
:10040000000041EB045141EA050130BD5FEA4C0CAC
:10041000404141EB0101013C28BFB1F5801FE9D209
:1004200091F0000F04BF01460020B1FA81F308BF2C
:100430002033A3F10B03B3F120020CDA0C3208DDF8
:1004400002F1140CC2F10C0201FA0CF021FA02F1D3
:100450000CE002F11402D8BFC2F1200C01FA02F143
:1004600020FA0CFCDCBF41EA0C019040E41AA2BF68
:1004700001EB0451294330BD6FEA04041F3C1CDA30
:100480000C340EDC04F11404C4F1200220FA04F050
:1004900001FA02F340EA030021FA04F345EA0301FA
:1004A00030BDC4F10C04C4F1200220FA02F001FABC
:1004B00004F340EA0300294630BD21FA04F029463E
:1004C00030BD94F0000F83F4801306BF81F48011D7
:1004D0000134013D4EE77FEA645C18BF7FEA655C4A
:1004E00029D094EA050F08BF90EA020F05D054EA1C
:1004F000000C04BF1946104630BD91EA030F1EBF21
:100500000021002030BD5FEA545C05D14000494124
:1005100028BF41F0004130BD14F580043CBF01F517
:10052000801130BD01F0004545F0FE4141F47001FD
:100530004FF0000030BD7FEA645C1ABF19461046D8
:100540007FEA655C1CBF0B46024650EA013406BFD9
:1005500052EA033591EA030F41F4002130BD00BF98
:1005600090F0000F04BF0021704730B54FF4806455
:1005700004F132044FF000054FF0000150E700BFD6
:1005800090F0000F04BF0021704730B54FF4806435
:1005900004F1320410F0004548BF40424FF0000122
:1005A0003EE700BF42004FEAE2014FEA31014FEA65
:1005B00002701FBF12F07F4393F07F4F81F06051B4
:1005C000704732F07F4208BF704793F07F4F04BFFF
:1005D00041F40021704730B54FF4607401F00045DC
:1005E00021F000411CE700BF50EA010208BF70473C
:1005F00030B54FF000050AE050EA010208BF70472D
:1006000030B511F0004502D5404261EB41014FF495
:10061000806404F132045FEA915C3FF4D8AE4FF09D
:1006200003025FEADC0C18BF03325FEADC0C18BF80
:10063000033202EBDC02C2F1200300FA03FC20FAD1
:1006400002F001FA03FE40EA0E0021FA02F114441E
:10065000BDE600BF70B54FF0FF0C4CF4E06C1CEA37
:1006600011541DBF1CEA135594EA0C0F95EA0C0FA8
:1006700000F0DEF82C4481EA030621EA4C5123EA1B
:100680004C5350EA013518BF52EA033541F480114A
:1006900043F4801338D0A0FB02CE4FF00005E1FBFD
:1006A00002E506F00042E0FB03E54FF00006E1FB47
:1006B00003569CF0000F18BF4EF0010EA4F1FF048A
:1006C000B6F5007F64F5407404D25FEA4E0E6D41CA
:1006D00046EB060642EAC62141EA55514FEAC520DB
:1006E00040EA5E504FEACE2EB4F1FD0C88BFBCF557
:1006F000E06F1ED8BEF1004F08BF5FEA500E50F108
:10070000000041EB045170BD06F0004646EA0101CD
:1007100040EA020081EA0301B4EB5C04C2BFD4EBFF
:100720000C0541EA045170BD41F480114FF0000EF8
:10073000013C00F3AB8014F1360FDEBF002001F066
:10074000004170BDC4F10004203C35DA0C341BDCE0
:1007500004F11404C4F1200500FA05F320FA04F0B2
:1007600001FA05F240EA020001F0004221F00041E6
:1007700010EBD37021FA04F642EB06015EEA430E59
:1007800008BF20EAD37070BDC4F10C04C4F1200589
:1007900000FA04F320FA05F001FA04F240EA02003C
:1007A00001F0004110EBD37041F100015EEA430E0D
:1007B00008BF20EAD37070BDC4F1200500FA05F22D
:1007C0004EEA020E20FA04F301FA05F243EA0203AC
:1007D00021FA04F001F0004121FA04F220EA0200BB
:1007E00000EBD3705EEA430E08BF20EAD37070BD01
:1007F00094F0000F0FD101F00046400041EB0101E1
:1008000011F4801F08BF013CF7D041EA060195F0C2
:10081000000F18BF704703F00046520043EB03037C
:1008200013F4801F08BF013DF7D043EA0603704769
:1008300094EA0C0F0CEA135518BF95EA0C0F0CD074
:1008400050EA410618BF52EA4306D1D181EA0301BA
:1008500001F000414FF0000070BD50EA410606BFB4
:100860001046194652EA430619D094EA0C0F02D1F9
:1008700050EA013613D195EA0C0F05D152EA03363E
:100880001CBF104619460AD181EA030101F000415C
:1008900041F0FE4141F470014FF0000070BD41F0A5
:1008A000FE4141F4780170BD70B54FF0FF0C4CF47F
:1008B000E06C1CEA11541DBF1CEA135594EA0C0F9E
:1008C00095EA0C0F00F0A7F8A4EB050481EA030EEB
:1008D00052EA03354FEA013100F088804FEA0333D2
:1008E0004FF0805545EA131343EA12634FEA0222A0
:1008F00045EA111545EA10654FEA00260EF0004161
:100900009D4208BF964244F1FD0404F5407402D2B2
:100910005B084FEA3202B61A65EB03055B084FEA43
:1009200032024FF480104FF4002CB6EB020E75EB40
:10093000030E22BFB61A754640EA0C005B084FEA68
:100940003202B6EB020E75EB030E22BFB61A7546E5
:1009500040EA5C005B084FEA3202B6EB020E75EB30
:10096000030E22BFB61A754640EA9C005B084FEAA8
:100970003202B6EB020E75EB030E22BFB61A7546B5
:1009800040EADC0055EA060E18D04FEA051545EAA4
:1009900016754FEA06164FEAC30343EA52734FEA4D
:1009A000C2025FEA1C1CC0D111F4801F0BD141EAC6
:1009B00000014FF000004FF0004CB6E711F4801F2B
:1009C00004BF01430020B4F1FD0C88BFBCF5E06F0B
:1009D0003FF6AFAEB5EB030C04BFB6EB020C5FEA1B
:1009E000500C50F1000041EB045170BD0EF0004E70
:1009F0004EEA113114EB5C04C2BFD4EB0C0541EAA2
:100A0000045170BD41F480114FF0000E013C90E69E
:100A100045EA060E8DE60CEA135594EA0C0F08BF62
:100A200095EA0C0F3FF43BAF94EA0C0F0AD150EA61
:100A300001347FF434AF95EA0C0F7FF425AF1046F4
:100A400019462CE795EA0C0F06D152EA03353FF41C
:100A5000FDAE1046194622E750EA410618BF52EA99
:100A600043067FF4C5AE50EA41047FF40DAF52EA6D
:100A700043057FF4EBAE12E74FEA4102B2F1E043E7
:100A800024BFB3F5001CDCF1FE5C0DD901F0004C75
:100A90004FEAC0024CEA5070B2F1004F40EB8300C5
:100AA00008BF20F00100704711F0804F21D113F1F1
:100AB0003872BCBF01F00040704741F480114FEA2A
:100AC0005252C2F11802C2F1200C10FA0CF320FAB3
:100AD00002F018BF40F001004FEAC1234FEAD323D0
:100AE00003FA0CFC40EA0C0023FA02F34FEA43033A
:100AF000CCE77FEA625307D150EA01331EBF4FF0C3
:100B0000FE4040F44000704701F0004040F0FE40DD
:100B100040F40000704700BF4FEA4002B2F1FE4FC0
:100B20000FD34FF09E03B3EB12620DD94FEA0023AF
:100B300043F0004310F0004F23FA02F018BF404288
:100B400070474FF00000704712F1610F01D142026F
:100B500005D110F0004008BF6FF0004070474FF023
:100B60000000704780B582B000AF78600E4B1B6804
:100B700000225A620C4B1B684FF6FF72DA620A4B76
:100B80004FF6FF72DA60084803F072FC00BF064BB4
:100B90001B685A6A7B689A42F9D3034803F0B2FC97
:100BA00000BF0837BD4680BDD403002080B586B0A5
:100BB00000AF78600B467B8007F1080300221A60C3
:100BC0005A609A60DA607B88BB600123FB60022375
:100BD0007B6107F108031946786802F053F800BFFB
:100BE0001837BD4680BD80B586B000AF78600B4633
:100BF0007B8007F1080300221A605A609A60DA606D
:100C00007B88BB600023FB6000233B6107F1080386
:100C10001946786802F036F800BF1837BD4680BD27
:100C200080B500AF02211148FFF7C0FF0122022169
:100C30000E4802F0C2F90A2001F0EAF9002202216E
:100C40000A4802F0BAF944F25060FFF78BFF012224
:100C50000221064802F0B1F91E20FFF783FF0221AE
:100C60000248FFF7C0FF00BF80BD00BF0008014081
:100C700080B582B000AF0023FB712820FFF772FF20
:100C80000221114802F082F90346002B0ED15020B8
:100C9000FFF768FF02210C4802F078F90346002BA9
:100CA00002D00123FB7101E0FF23FB7100BF022191
:100CB000054802F06BF90346002BF8D1FB79184682
:100CC0000837BD4680BD00BF0008014080B582B036
:100CD00000AF0023BB7137E000BF02211E4802F0C5
:100CE00055F90346002BF8D02820FFF73BFF0221DF
:100CF000194802F04BF90346002B0ED1BB79C3F122
:100D00000703012202FA03F35BB2DB435AB297F9FD
:100D1000073013405BB2FB710BE0BB79C3F10703F3
:100D2000012202FA03F35AB297F9073013435BB278
:100D3000FB7100BF0221084802F028F90346002B8E
:100D4000F8D1BB790133BB71BB79072BC4D9FB79CF
:100D500018460837BD4680BD0008014080B582B006
:100D600000AF7860FFF75CFFFFF782FF03461A468B
:100D70001E4B1A70FFF7AAFF03461A461C4B1A7047
:100D8000FFF7A4FF03461A461A4B1A70FFF79EFF9F
:100D900003461A46184B1A70FFF798FF03461A4687
:100DA000164B1A70FFF792FF03469AB2144B1A8043
:100DB000134B1B8819460E4B1B781A460D4B1B789C
:100DC00013440D4A127813440C4A12781344994282
:100DD00007D1094B1A787B681A70054B1A787B6823
:100DE0005A7000BF0837BD4680BD00BF9A00002082
:100DF000940000209500002096000020970000201D
:100E00009800002080B485B000AFF860B9607A60C7
:100E1000FB68064A1A60BB68054A1A607B68802234
:100E20001A6000BF1437BD4680BC70479C0000208C
:100E30005001002080B586B002AF0346FB71FB79FC
:100E400023F00F03FB73FB791B01BB73FB7B43F0A8
:100E50000C03DBB23B72FB7B43F00803DBB27B721B
:100E6000BB7B43F00C03DBB2BB72BB7B43F00803DC
:100E7000DBB2FB7207F108026423009304234E21C6
:100E8000034802F00FFA00BF1037BD4680BD00BF17
:100E90008003002080B586B002AF0346FB71FB796A
:100EA00023F00F03FB73FB791B01BB73FB7B43F048
:100EB0000D03DBB23B72FB7B43F00903DBB27B72B9
:100EC000BB7B43F00D03DBB2BB72BB7B43F009037A
:100ED000DBB2FB7207F108026423009304234E2166
:100EE000034802F0DFF900BF1037BD4680BD00BFE8
:100EF0008003002080B582B000AF8020FFF79AFF0A
:100F000000237B6005E02020FFF7C4FF7B680133EE
:100F10007B607B68452BF6DD00BF00BF0837BD4610
:100F200080BD80B582B000AF786039607B68002BEF
:100F300003D07B68012B05D009E03B6843F08003B8
:100F40003B6004E03B6843F0C0033B6000BF3B688C
:100F5000DBB21846FFF76EFF00BF0837BD4680BD05
:100F600080B500AF322001F053F83020FFF762FF68
:100F7000052001F04DF83020FFF75CFF012001F063
:100F800047F83020FFF756FF0A2001F041F82020F3
:100F9000FFF750FF0A2001F03BF82820FFF74AFF37
:100FA000012001F035F80820FFF744FF012001F08F
:100FB0002FF80120FFF73EFF012001F029F8012062
:100FC00001F026F80620FFF735FF012001F020F898
:100FD0000C20FFF72FFF00BF80BD80B582B000AFAF
:100FE000786006E07B685A1C7A601B781846FFF729
:100FF00051FF7B681B78002BF4D100BF00BF08377E
:10100000BD4680BDB0B594B000AF00F09FFF00F0CA
:1010100067F800F0A1F900F0FBF800F027F900F004
:1010200071F900F0B7F8FFF79BFF1222234924481B
:1010300003F087FD0023BB640023FB6407F1480332
:101040000121184604F067FA03461E4A13601E4B3E
:1010500007F138040FCB84E80F0007F138030021B3
:10106000184604F00FFB0346184A1360184B07F1AB
:101070001C041D460FCD0FC495E8070084E8070047
:1010800007F11C030021184604F0E5F90346114A54
:101090001360114B3C461D460FCD0FC495E8070069
:1010A00084E807003B460021184604F0D4F90346C3
:1010B0000A4A136004F0C8F9FEE700BF720400207A
:1010C0001C0400206C040020CC860008680400206A
:1010D000DC86000860040020F88600086404002014
:1010E00080B594B000AF07F12803282200211846EC
:1010F00006F05AFD07F1140300221A605A609A6044
:10110000DA601A613B1D00221A605A609A60DA6048
:101110000123BB624FF48033FB6200233B63012356
:10112000BB6302237B644FF48033BB640023FB6406
:1011300007F12803184602F0BBFB0346002B01D041
:1011400000F042FD0F237B610223BB610023FB61A2
:101150004FF480633B6200237B6207F1140300219C
:10116000184602F027FE0346002B01D000F02CFDAC
:1011700002237B600023FB603B1D184602F0B2FF98
:101180000346002B01D000F01FFD00BF5037BD46C5
:1011900080BD000080B584B000AF3B1D00221A6006
:1011A0005A609A60184B194A1A60174B00229A60CD
:1011B000154B00221A73144B00221A75124B4FF470
:1011C0006022DA61104B00225A600F4B01221A6133
:1011D0000D4800F041FF0346002B01D000F0F4FC65
:1011E00000237B600123BB600023FB603B1D19468D
:1011F000054801F0F5F90346002B01D000F0E4FCAE
:1012000000BF1037BD4680BD5003002000240140C0
:1012100080B500AF124B134A1A60114B124A5A6044
:101220000F4B00229A600E4B0022DA600C4B4FF4F9
:1012300080421A610A4B00225A61094B00229A61CE
:10124000074B0022DA61064B00221A62044801F0C3
:10125000E5FE0346002B01D000F0B6FC00BF80BDC8
:101260008003002000540040A086010080B586B0B5
:1012700000AF07F1080300221A605A609A60DA6032
:101280003B4600221A605A601D4B4FF080421A60A4
:101290001B4B0F225A601A4B00229A60184B4FF6D4
:1012A000FF72DA60164B00221A61154B00229A6118
:1012B000134803F08DF80346002B01D000F084FCA6
:1012C0004FF48053BB6007F1080319460C4803F044
:1012D0003FF90346002B01D000F076FC00233B6071
:1012E00000237B603B461946054803F0EDFA0346B0
:1012F000002B01D000F068FC00BF1837BD4680BD50
:10130000D403002080B500AF114B124A1A60104B75
:101310004FF4E1325A600E4B00229A600C4B0022CF
:10132000DA600B4B00221A61094B0C225A61084B00
:1013300000229A61064B0022DA61054803F022FB85
:101340000346002B01D000F03FFC00BF80BD00BF72
:101350001C0400200038014080B588B000AF07F1C0
:10136000100300221A605A609A60DA602B4B9B6966
:101370002A4A43F020039361284B9B6903F0200322
:10138000FB60FB68254B9B69244A43F0040393618F
:10139000224B9B6903F00403BB60BB681F4B9B6936
:1013A0001E4A43F0080393611C4B9B6903F008033A
:1013B0007B607B6801220221194801F0FEFD0223B7
:1013C0003B6101237B610023BB610223FB6107F1C9
:1013D00010031946124801F055FC0C233B61114BD8
:1013E0007B610123BB6107F1100319460C4801F032
:1013F00049FC00220521082001F05DFB082001F0D6
:1014000076FB00220521092001F055FB092001F09F
:101410006EFB00BF2037BD4680BD00BF00100240FC
:10142000000801400000211080B582B000AF786054
:1014300012221049104803F084FB14220F4910486F
:1014400006F0E8FC0B48FEF78DFE0346023B1A4609
:1014500008490B4806F0DEFC14220849094806F04A
:10146000D9FC094B1B68184604F0D6F800BF0837B2
:10147000BD4680BD720400201C04002014870008B3
:1014800084040020700400206C04002080B582B029
:1014900000AF0346FB80FB88082B20D100F0AEFD97
:1014A00003461A46224B1A60214B1A68214B1B68CF
:1014B000D31AB3F5967F0EDD1F4B1B78DBB2012BE1
:1014C00006D11D4B02221A701C4B01221A7002E039
:1014D000194B01221A70164B1B68164A1360FB88C1
:1014E000042B1DD100F08AFD03461A46104B1A60EA
:1014F0000F4B1A680F4B1B68D31AB3F5967F0BDDA1
:101500000D4B1B78DBB2012B06D10D4B1B78DBB2E8
:101510000133DAB20A4B1A70054B1B68054A136097
:10152000084AFB88536100BF0837BD4680BD00BF35
:10153000A8040020AC0400200000002003000020CC
:10154000020000200004014080B58CB000AFB880DC
:10155000396000210020FFF7E4FC07F11C032D4A4D
:1015600092E8030018600433198002330A0C1A70E1
:1015700007F11C030633284A1188927819809A7063
:10158000264B1B78DBB21A4607F11C0308332449AB
:10159000184606F01FFC07F11C030933214A1068A6
:1015A000186007F11C030C333A681D49184606F011
:1015B00011FC07F11C031846FFF70FFD0021012065
:1015C000FFF7AFFC07F10C03174A1A603B791A4684
:1015D00007F10C0303331249184606F0FBFB07F131
:1015E0000C030533114A1068186012791A717B795F
:1015F0001A4607F10C0309330949184606F0EAFBBD
:1016000007F10C031846FFF7E8FC00BF3037BD4672
:1016100080BD00BF18870008208700080200002056
:1016200024870008288700084E443A002C870008C9
:1016300080B586B000AFB8803960FFF75BFC002151
:101640000020FFF76EFC2B48FFF7C7FC2A4B1B78E6
:10165000DBB2012B15D100210120FFF762FC07F15D
:101660000C03264A1A603B791A4607F10C03033330
:101670002349184606F0AEFB07F10C031846FFF7A6
:10168000ACFC1D4B1B78DBB2022B15D100210120D5
:10169000FFF747FC07F10C031A4A1A607B791A46D8
:1016A00007F10C0303331649184606F093FB07F1C4
:1016B0000C031846FFF791FC0F4B1B78DBB2032B92
:1016C00014D100210120FFF72CFC07F10C030E4A76
:1016D0001A6007F10C0303333A680949184606F00B
:1016E00079FB07F10C031846FFF777FC00BF1837AA
:1016F000BD4680BD34870008010000204E443A00FA
:101700002487000844413A0044543A0080B584B02C
:1017100000AF1B4B1B78DBB2012B2DD1194B1B7873
:10172000DBB2092B04D8174B1B78DBB2012B02D894
:10173000144B02221A7000210020FFF7F2FB12481E
:10174000FFF74BFC06210020FFF7EBFB3B1D0F4A88
:101750001268114619800233120C1A70094B1B785B
:10176000DBB21A463B1D02330949184606F032FB2C
:101770003B1D1846FFF731FC00BF1037BD4680BD4A
:1017800000000020020000201887000820870008C1
:101790002487000880B584B000AF7860304B1B7898
:1017A000DBB2012B0AD1786806F0C0F90346FB735F
:1017B000FB7B002B02D02B4AFB7B1370284B1B7842
:1017C000DBB2022B47D128497868FEF7C1FC0346FB
:1017D000BB7326497868FEF7BBFC03467B7324493C
:1017E0007868FEF7B5FC03463B73BB7B002B0DD13D
:1017F0007B7B002B0AD03B7B002B07D01D4B0122AB
:101800001A7014221C49786806F004FBBB7B002B7D
:101810000DD07B7B002B0AD13B7B002B07D0154BD7
:1018200002221A7014221449786806F0F3FABB7B7E
:10183000002B0DD07B7B002B0AD03B7B002B07D1EC
:101840000C4B03221A7014220B49786806F0E2FA56
:101850000A4B01221A7000BF1037BD4680BD00BF81
:1018600000000020020000203C8700084887000894
:1018700050870008010000201487000803000020A2
:1018800080B596B000AF5A4B1B78DBB2012B39D133
:101890003B1D584A07CA03C31A80574B1B781A4688
:1018A0003B1D09335549184606F094FA3B1D0B338E
:1018B00053491A460B4603CB106051604E4B5B7880
:1018C0001A463B1D12334D49184606F083FA3B1D5C
:1018D00014334C4A07CA03C31A800233120C1A701D
:1018E000494B1A683B1D1E334449184606F072FAEC
:1018F0003B1D22330A221A80391DC8232322434864
:1019000003F08DF83A4B1B78DBB2022B6CD1404BC5
:101910001B78DBB2012B1ED107F14803354A07CAF9
:1019200003C31A80344B1B781A4607F14803093366
:101930003249184606F04EFA07F148030B33354991
:101940001A460B461B88138007F1480164230C22BA
:101950002E4803F064F82E4B1B78DBB2022B20D10B
:1019600007F13C032C4A92E8030018600433198005
:1019700002330A0C1A70204B5B781A4607F13C03BD
:1019800006331E49184606F025FA07F13C030833D2
:101990000A221A8007F13C01642309221B4803F044
:1019A0003EF81B4B1B78DBB2032B1DD107F12C0338
:1019B0001A4A07CA03C31A80134B1A6807F12C038B
:1019C00009330E49184606F005FA07F12C030D33CA
:1019D00010491A460B461B88138007F12C0164231B
:1019E0000E220A4803F01BF800BF5837BD4680BDE1
:1019F000000000205C87000898040020248700086D
:101A000068870008708700089C0400201C040020E0
:101A1000010000207C870008808700088887000874
:101A200080B584B000AF7860002000F025F8F86041
:101A3000F868FEF7A5FD4FF000020D4BFEF734FFEE
:101A400002460B4610461946FFF716F803460949A9
:101A50001846FEF78FFB0346BB60B868FFF75CF8DB
:101A600002467B681A6000BF1037BD4680BD00BFCC
:101A70000000B04000409C4580B586B000AF786063
:101A800007F1080300221A605A609A607B68BB6005
:101A90000123FB6000233B6107F1080319460E4850
:101AA00000F09EFD0346002B01D000F08DF80A489F
:101AB00000F0AAFB4FF47A71074800F07FFC06485B
:101AC00000F082FD03467B61034800F04BFC7B691C
:101AD00018461837BD4680BD5003002080B582B03F
:101AE00000AF7860264B1B78DBB2012B27D1FFF7C4
:101AF0000DFE244B1B68244A1360234B1A68234BAA
:101B00001B68D31A224A1278D2B211464FF47A7265
:101B100001FB02F2934212D91E48FFF71FF91E483B
:101B2000FFF77EFF1C4B1B681A4A19461068FFF727
:101B30000BFD154B1B68154A1360FFF7A1FE104BF8
:101B40001B78DBB2022B16D1144B1B78DBB2012BB6
:101B500011D11048FFF702F90F48FFF761FF0E4B54
:101B60001B680C4A19461068FFF762FDFFF788FEF4
:101B70000A4B00221A70012003F0B9FCB2E700BF43
:101B800000000020B4040020A0040020A4040020D1
:101B900002000020980400209C0400200300002084
:101BA00080B582B000AF7860054B1B684FF0FF3105
:101BB000184603F0E3FC0348FFF7ECFDF4E700BF31
:101BC0006C0400208404002080B400AFFEE7000015
:101BD00080B584B000AF184B9B69174A43F00103EE
:101BE0009361154B9B6903F00103BB60BB68124B0B
:101BF000DB69114A43F08053D3610F4BDB6903F07B
:101C000080537B607B6800220F216FF0010000F0A1
:101C100052FF0A4B5B68FB60FB6823F0E063FB60EC
:101C2000FB6843F00073FB60044AFB68536000BF2D
:101C30001037BD4680BD00BF0010024000000140CB
:101C400080B588B000AF786007F1100300221A60F9
:101C50005A609A60DA607B681B68144A934221D10B
:101C6000134B9B69124A43F400739361104B9B69B9
:101C700003F40073FB60FB680D4B9B690C4A43F057
:101C8000040393610A4B9B6903F00403BB60BB68C8
:101C900001233B6103237B6107F1100319460548CB
:101CA00000F0F0FF00BF2037BD4680BD002401409A
:101CB000001002400008014080B588B000AF786095
:101CC00007F1100300221A605A609A60DA607B689C
:101CD0001B68154A934223D1144B9B69134A43F066
:101CE00008039361114B9B6903F00803FB60FB68D9
:101CF000C0233B6112237B610323FB6107F11003C7
:101D000019460B4800F0BEFF084BDB69074A43F455
:101D10000013D361054BDB6903F40013BB60BB68A0
:101D200000BF2037BD4680BD005400400010024077
:101D3000000C014080B485B000AF78607B681B6800
:101D4000B3F1804F0BD1084BDB69074A43F0010325
:101D5000D361054BDB6903F00103FB60FB6800BF47
:101D60001437BD4680BC70470010024080B588B073
:101D700000AF786007F1100300221A605A609A6081
:101D8000DA607B681B68204A934239D11F4B9B69FC
:101D90001E4A43F4804393611C4B9B6903F48043C8
:101DA000FB60FB68194B9B69184A43F0040393617D
:101DB000164B9B6903F00403BB60BB684FF40073D0
:101DC0003B6102237B610323FB6107F1100319468A
:101DD0000F4800F057FF4FF480633B6100237B61A5
:101DE0000023BB6107F110031946094800F04AFFC0
:101DF00000220521252000F05EFE252000F077FE60
:101E000000BF2037BD4680BD0038014000100240B1
:101E10000008014080B400AFFEE780B400AFFEE7E9
:101E200080B400AFFEE780B400AFFEE780B400AF3F
:101E3000FEE780B400AF00BFBD4680BC704780B5F0
:101E400000AF00F0C9F805F061F80346012B01D09E
:101E500005F012FC00BF80BD80B500AF042001F08A
:101E6000C5F800BF80BD80B500AF082001F0BEF806
:101E700000BF80BD80B500AF024802F093FE00BFF6
:101E800080BD00BF1C04002080B586B000AF786024
:101E9000144A154BD31A7B617B693B61134B1B685A
:101EA000002B02D1114B124A1A60104B1A687B6842
:101EB00013443A699A4207D205F03CFE03460C22CD
:101EC0001A604FF0FF3309E0084B1B68FB60074BBB
:101ED0001A687B681344054A1360FB681846183774
:101EE000BD4680BD0050002000040000B00400206A
:101EF000181A002080B400AF00BFBD4680BC7047F8
:101F00000C480D490D4A002302E0D458C450043354
:101F1000C4188C42F9D30A4A0A4C002301E013602A
:101F20000432A242FBD3FFF7E5FF05F009FEFFF7FD
:101F300069F87047000000207800002070890008D0
:101F400078000020141A0020FEE7000080B500AFE2
:101F5000084B1B68074A43F010031360032000F08E
:101F60009FFD0F2000F008F8FFF732FE002318460F
:101F700080BD00BF0020024080B582B000AF786015
:101F8000124B1A68124B1B7819464FF47A73B3FB45
:101F9000F1F3B2FBF3F3184600F0B7FD0346002B54
:101FA00001D001230EE07B680F2B0AD8002279684C
:101FB0004FF0FF3000F07FFD064A7B68136000237E
:101FC00000E0012318460837BD4680BD040000200C
:101FD0000C0000200800002080B400AF054B1B78E7
:101FE0001A46054B1B681344034A136000BFBD46E5
:101FF00080BC70470C000020B404002080B400AF07
:10200000024B1B681846BD4680BC7047B4040020D4
:1020100080B584B000AF7860FFF7F0FFB8607B68F0
:10202000FB60FB68B3F1FF3F05D00A4B1B781A46F3
:10203000FB681344FB6000BFFFF7E0FF0246BB688C
:10204000D31AFA689A42F7D800BF00BF1037BD46CE
:1020500080BD00BF0C00002080B586B000AF786066
:102060000023FB7500233B610023BB600023FB6062
:102070007B68002B01D10123BEE07B689B68002BAD
:102080007B689B6A002B09D17B680022DA627B683F
:10209000002283F824207868FFF7D2FD786800F0EA
:1020A000F1FB0346FB757B689B6A03F01003002B72
:1020B00040F09980FB7D002B40F095807B689B6A07
:1020C00023F4885323F0020343F002027B689A62F0
:1020D0007B685A687B68DB691A437B681B7B5B0003
:1020E0001343BA681343BB607B689B68B3F5807F7A
:1020F00003D07B689B68012B02D14FF4807300E012
:1021000000233A6913433B617B681B7D012B19D186
:102110007B681B7B002B09D17B689B69013B5A03C1
:102120003B69134343F400633B610BE07B689B6AAC
:1021300043F020027B689A627B68DB6A43F001020D
:102140007B68DA627B681B685B6823F469417B68A3
:102150001B683A690A435A607B681B689A68284B77
:1021600013407A681268B9680B4393607B689B6878
:10217000B3F5807F03D07B689B68012B04D17B681B
:102180001B69013B1B05FB607B681B68DB6A23F452
:1021900070017B681B68FA680A43DA627B681B6817
:1021A0009A68184B1340BA689A420BD17B68002298
:1021B000DA627B689B6A23F0030343F001027B68C9
:1021C0009A6218E07B689B6A23F0120343F01002C6
:1021D0007B689A627B68DB6A43F001027B68DA62A3
:1021E0000123FB7507E07B689B6A43F010027B6864
:1021F0009A620123FB75FB7D18461837BD4680BDEA
:10220000FDF7E1FFFE0E1FFF80B584B000AF7860E0
:102210000023FB737B6893F82430012B01D1022348
:1022200098E07B68012283F82420786800F0D0FAD7
:102230000346FB73FB7B002B40F087807B689B6A27
:1022400023F4407323F0010343F480727B689A62A5
:102250007B681B68414A934205D1414B5B6803F49C
:102260007023002B15D17B689B6A23F480127B6856
:102270009A627B681B685B6803F48063002B26D03E
:102280007B689B6A23F4405343F480527B689A62D4
:102290001DE07B689B6A43F480127B689A627B68CE
:1022A0001B682F4A934204D07B681B682B4A9342D9
:1022B0000DD12B4B5B6803F48063002B07D07B6848
:1022C0009B6A23F4405343F480527B689A627B6894
:1022D0009B6A03F48053002B06D07B68DB6A23F0F3
:1022E00006027B68DA6202E07B680022DA627B68C1
:1022F000002283F824207B681B686FF002021A60BA
:102300007B681B689B6803F46023B3F5602F13D1CF
:102310007B681B68114A934205D1114B5B6803F43B
:102320007023002B08D17B681B689A687B681B6848
:1023300042F4A0029A600CE07B681B689A687B6894
:102340001B6842F480129A6003E07B68002283F8E5
:102350002420FB7B18461037BD4680BD0028014075
:102360000024014080B584B000AF78600023FB7387
:102370007B6893F82430012B01D102231AE07B689B
:10238000012283F82420786800F07CFA0346FB736E
:10239000FB7B002B09D17B689B6A23F4885323F0D5
:1023A000010343F001027B689A627B68002283F894
:1023B0002420FB7B18461037BD4680BD90B587B002
:1023C00000AF7860396000237B610023FB6000234D
:1023D0003B61FFF713FE78617B681B689B6803F421
:1023E0008073002B0BD07B689B6A43F020027B68D4
:1023F0009A627B68002283F824200123D3E07B6863
:102400001B685B6803F48073002B31D17B681B6809
:10241000DB6A03F47003002B2AD121E03B68B3F19F
:10242000FF3F1DD03B68002B07D0FFF7E7FD0246BA
:102430007B69D31A3A689A4212D27B681B681B6880
:1024400003F00203002B0BD17B689B6A43F004026C
:102450007B689A627B68002283F824200323A2E031
:102460007B681B681B6803F00203002BD6D070E06A
:102470004F4B1C68022001F0EBFE0346B4FBF3F265
:102480007B681B6819694B4B0B40002B18D17B688C
:102490001B68D968484B0B40002B11D17B681B6827
:1024A0001969464B0B40002B08D17B681B68D96823
:1024B000434B0B40002B01D1142320E029231EE0C5
:1024C0007B681B6819693D4B0B40002B06D17B686C
:1024D0001B68D9683A4B0B40002B0DD07B681B68FA
:1024E0001969384B0B40002B08D17B681B68D968F1
:1024F000344B0B40002B01D1542300E0FC2302FBA2
:1025000003F33B6121E03B68B3F1FF3F1AD03B6826
:10251000002B07D0FFF772FD02467B69D31A3A6899
:102520009A420FD2FB683A699A420BD97B689B6A40
:1025300043F004027B689A627B68002283F82420BF
:10254000032330E0FB680133FB60FB683A699A4281
:10255000D9D87B681B686FF012021A607B689B6A8F
:1025600043F400727B689A627B681B689B6803F483
:102570006023B3F5602F15D17B681B7B002B11D135
:102580007B689B6A23F480727B689A627B689B6A93
:1025900003F48053002B05D17B689B6A43F0010252
:1025A0007B689A62002318461C37BD4690BD00BF69
:1025B00004000020244992242449920092244912C4
:1025C000922449004992240080B483B000AF78601F
:1025D0007B681B68DB6C18460C37BD4680BC7047B7
:1025E00080B485B000AF786039600023FB730023AE
:1025F000BB607B6893F82430012B01D10223DCE01F
:102600007B68012283F824203B685B68062B1CD87A
:102610007B681B68596B3B685A6813469B001344E0
:10262000053B1F2202FA03F3DB4319403B6818689D
:102630003B685A6813469B001344053B00FA03F2BB
:102640007B681B680A435A633CE03B685B680C2B61
:102650001CD87B681B68196B3B685A6813469B0043
:102660001344233B1F2202FA03F3DB4319403B6868
:1026700018683B685A6813469B001344233B00FAD2
:1026800003F27B681B680A431A631BE07B681B68C4
:10269000D96A3B685A6813469B001344413B1F228A
:1026A00002FA03F3DB4319403B6818683B685A6839
:1026B00013469B001344413B00FA03F27B681B68FE
:1026C0000A43DA623B681B68092B1CD97B681B68CC
:1026D000D9683B681A6813465B0013441E3B072207
:1026E00002FA03F3DB4319403B6898683B681A68B9
:1026F00013465B0013441E3B00FA03F27B681B6821
:102700000A43DA6019E07B681B6819693B681A683C
:1027100013465B001344072202FA03F3DB4319401C
:102720003B6898683B681A6813465B00134400FADC
:1027300003F27B681B680A431A613B681B68102B15
:1027400003D03B681B68112B32D17B681B681D4A84
:10275000934225D17B681B689B6803F40003002B20
:1027600026D17B681B689A687B681B6842F400026C
:102770009A603B681B68102B1AD1134B1B68134AD5
:10278000A2FB03239A0C13469B0013445B00BB601F
:1027900002E0BB68013BBB60BB68002BF9D107E0DE
:1027A0007B689B6A43F020027B689A620123FB737B
:1027B0007B68002283F82420FB7B18461437BD4633
:1027C00080BC7047002401400400002083DE1B43CE
:1027D00080B584B000AF78600023FB600023BB604D
:1027E0007B681B689B6803F00103012B40D07B686A
:1027F0001B689A687B681B6842F001029A601F4B55
:102800001B681F4AA2FB03239B0CBB6002E0BB6852
:10281000013BBB60BB68002BF9D1FFF7EFFBF86011
:102820001FE0FFF7EBFB0246FB68D31A022B18D917
:102830007B681B689B6803F00103012B11D07B6848
:102840009B6A43F010027B689A627B68DB6A43F004
:1028500001027B68DA627B68002283F8242001236E
:1028600007E07B681B689B6803F00103012BD8D14C
:10287000002318461037BD4680BD00BF040000206D
:1028800083DE1B4380B584B000AF78600023FB601B
:102890007B681B689B6803F00103012B2ED17B68CA
:1028A0001B689A687B681B6822F001029A60FFF738
:1028B000A5FBF8601BE0FFF7A1FB0246FB68D31AFB
:1028C000022B14D97B681B689B6803F00103012B62
:1028D0000DD17B689B6A43F010027B689A627B682B
:1028E000DB6A43F001027B68DA62012307E07B6860
:1028F0001B689B6803F00103012BDCD00023184602
:102900001037BD4680BD000080B485B000AF786050
:102910007B6803F00703FB600C4BDB68BB60BA68A5
:102920004FF6FF031340BB60FB681A02BB681343FA
:1029300043F0BF6343F40033BB60044ABB68D36019
:1029400000BF1437BD4680BC704700BF00ED00E0FB
:1029500080B400AF044BDB681B0A03F00703184682
:10296000BD4680BC704700BF00ED00E080B483B07E
:1029700000AF0346FB7197F90730002B0BDBFB79A7
:1029800003F01F02064997F907305B09012000FA9E
:1029900002F241F8232000BF0C37BD4680BC7047CF
:1029A00000E100E080B483B000AF03463960FB7102
:1029B00097F90730002B0ADB3B68DAB20C4997F92C
:1029C00007301201D2B20B4483F800230AE03B68BF
:1029D000DAB20849FB7903F00F03043B1201D2B2CB
:1029E0000B441A7600BF0C37BD4680BC704700BF51
:1029F00000E100E000ED00E080B489B000AFF860D5
:102A0000B9607A60FB6803F00703FB61FB69C3F1FF
:102A10000703042B28BF0423BB61FB690433062B87
:102A200002D9FB69033B00E000237B614FF0FF32DA
:102A3000BB6902FA03F3DA43BB681A407B699A4028
:102A40004FF0FF317B6901FA03F3D9437B680B40F8
:102A5000134318462437BD4680BC704780B582B00A
:102A600000AF78607B68013BB3F1807F01D3012325
:102A70000FE00A4A7B68013B53600F214FF0FF30A3
:102A8000FFF790FF054B00229A60044B07221A6063
:102A9000002318460837BD4680BD00BF10E000E0A7
:102AA00080B582B000AF78607868FFF72DFF00BF77
:102AB0000837BD4680BD80B586B000AF0346B9601B
:102AC0007A60FB7300237B61FFF742FF78617A68CD
:102AD000B9687869FFF790FF024697F90F30114601
:102AE0001846FFF75FFF00BF1837BD4680BD80B5B1
:102AF00082B000AF0346FB7197F907301846FFF725
:102B000035FF00BF0837BD4680BD80B582B000AF3D
:102B100078607868FFF7A2FF034618460837BD467D
:102B200080BD80B485B000AF78600023FB737B6804
:102B300093F82130022B08D07B6804229A637B68CB
:102B4000002283F82020012320E07B681B681A689C
:102B50007B681B6822F00E021A607B681B681A688B
:102B60007B681B6822F001021A607B681A6C7B6824
:102B7000DB6B012101FA02F25A607B68012283F8C3
:102B800021207B68002283F82020FB7B1846143725
:102B9000BD4680BC7047000080B584B000AF78604F
:102BA0000023FB737B6893F82130022B05D07B68F0
:102BB00004229A630123FB7351E07B681B681A6847
:102BC0007B681B6822F00E021A607B681B681A681B
:102BD0007B681B6822F001021A607B681B68224A2E
:102BE000934229D07B681B68204A934222D07B689D
:102BF0001B681F4A93421AD07B681B681D4A934288
:102C000012D07B681B681C4A93420AD07B681B6801
:102C10001A4A934202D14FF480130EE04FF08073B2
:102C20000BE04FF4803308E04FF4805305E04FF49D
:102C3000807302E0102300E00123114A53607B6897
:102C4000012283F821207B68002283F820207B6802
:102C50005B6B002B03D07B685B6B78689847FB7BD2
:102C600018461037BD4680BD080002401C000240D7
:102C70003000024044000240580002406C00024014
:102C80000000024080B48BB000AF78603960002350
:102C90007B6200233B6269E101227B6A02FA03F353
:102CA000FB613B681B68FA691340BB61BA69FB6949
:102CB0009A4240F058813B685B689A4A93425ED0E2
:102CC000984A934275D8984A934258D0964A93426C
:102CD0006FD8964A934252D0944A934269D8944A04
:102CE00093424CD0924A934263D8924A934246D040
:102CF000904A93425DD8122B2AD8122B59D801A2A0
:102D000052F823F07F2D0008592D00086B2D000884
:102D1000AD2D0008B32D0008B32D0008B32D000819
:102D2000B32D0008B32D0008B32D0008B32D000803
:102D3000B32D0008B32D0008B32D0008B32D0008F3
:102D4000B32D0008B32D0008612D0008752D000873
:102D5000794A934213D02CE03B68DB683B6229E060
:102D60003B68DB6804333B6224E03B68DB68083384
:102D70003B621FE03B68DB680C333B621AE03B6858
:102D80009B68002B02D104233B6213E03B689B68E5
:102D9000012B05D108233B627B68FA691A6109E0BF
:102DA00008233B627B68FA695A6103E000233B62B7
:102DB00000E000BFBB69FF2B01D87B6801E07B68A6
:102DC00004337B61BB69FF2B02D87B6A9B0002E066
:102DD0007B6A083B9B003B617B691A680F213B695A
:102DE00001FA03F3DB431A40396A3B6901FA03F342
:102DF0001A437B691A603B685B6803F08053002BC1
:102E000000F0B1804D4B9B694C4A43F00103936144
:102E10004A4B9B6903F00103BB60BB68484A7B6A6D
:102E20009B08023352F82330FB607B6A03F00303F4
:102E30009B000F2202FA03F3DB43FA681340FB60A6
:102E40007B68404A934213D07B683F4A93420DD03F
:102E50007B683E4A934207D07B683D4A934201D14A
:102E6000032306E0042304E0022302E0012300E040
:102E700000237A6A02F0030292009340FA68134337
:102E8000FB602F497B6A9B080233FA6841F82320D4
:102E90003B685B6803F48033002B06D02D4B1A6827
:102EA0002C49BB6913430B6006E02A4B1A68BB69C7
:102EB000DB43284913400B603B685B6803F4003335
:102EC000002B06D0234B5A682249BB6913434B6041
:102ED00006E0204B5A68BB69DB431E4913404B6038
:102EE0003B685B6803F48013002B06D0194B9A688B
:102EF0001849BB6913438B6006E0164B9A68BB699F
:102F0000DB43144913408B603B685B6803F4001398
:102F1000002B21D00F4BDA680E49BB691343CB60FD
:102F200021E000BF0000321000003110000022102C
:102F300000002110000012100000111000100240CB
:102F40000000014000080140000C01400010014059
:102F500000140140000401400B4BDA68BB69DB43FD
:102F600009491340CB607B6A01337B623B681A6876
:102F70007B6A22FA03F3002B7FF48EAE00BF00BF02
:102F80002C37BD4680BC70470004014080B485B03A
:102F900000AF78600B467B807B689A687B88134023
:102FA000002B02D00123FB7301E00023FB73FB7BAA
:102FB00018461437BD4680BC704780B483B000AF5C
:102FC00078600B467B8013467B707B78002B03D0A8
:102FD0007A887B681A6103E07B881A047B681A612F
:102FE00000BF0C37BD4680BC7047000080B582B082
:102FF00000AF0346FB80084B5A69FB881340002B47
:1030000006D0054AFB885361FB881846FEF73EFA56
:1030100000BF0837BD4680BD0004014080B584B0C4
:1030200000AF78607B68002B01D101232BE17B6826
:1030300093F83D30DBB2002B06D17B68002283F889
:103040003C207868FEF738FE7B68242283F83D2018
:103050007B681B681A687B681B6822F001021A6093
:103060007B681B681A687B681B6842F400421A6020
:103070007B681B681A687B681B6822F400421A6030
:1030800000F0EAFFF8607B685B68814A934207D8EA
:10309000FB68804A934294BF01230023DBB206E021
:1030A000FB687D4A934294BF01230023DBB2002BCF
:1030B00001D00123E7E0FB68784AA2FB03239B0CC5
:1030C000BB607B681B685B6823F03F017B681B6803
:1030D000BA680A435A607B681B681B6A23F03F0189
:1030E0007B685B686A4A934202D8BB68013309E097
:1030F000BB684FF4967202FB03F3694AA2FB0323F9
:103100009B0901337A6812680B4313627B681B6862
:10311000DB6923F44F4222F0FF027B685B685C4965
:103120008B4219D8FB68591E7B685B685B00B1FB5A
:10313000F3F3591C40F6FC730B40002B0AD0FB68DC
:10314000591E7B685B685B00B1FBF3F30133C3F38B
:103150000B0351E004234FE07B689B68002B11D1E7
:10316000FB68581E7B6859680B465B000B44B0FB3C
:10317000F3F30133C3F30B03002B0CBF0123002334
:10318000DBB212E0FB68581E7B6859680B469B0057
:103190000B4499000B44B0FBF3F30133C3F30B036F
:1031A000002B0CBF01230023DBB2002B01D0012335
:1031B00022E07B689B68002B0ED1FB68581E7B6861
:1031C00059680B465B000B44B0FBF3F30133C3F3C8
:1031D0000B0343F400430FE0FB68581E7B685968FB
:1031E0000B469B000B4499000B44B0FBF3F30133F7
:1031F000C3F30B0343F44043796809681343CB617D
:103200007B681B681B6823F0C0017B68DA697B68F8
:103210001B6A1A437B681B680A431A607B681B6839
:103220009B6823F4034323F0FF037A6811697A68EB
:10323000D26811437A6812680B4393607B681B68FD
:10324000DB6823F0FF017B685A697B689B691A433E
:103250007B681B680A43DA607B681B681A687B68B6
:103260001B6842F001021A607B6800221A647B68C6
:10327000202283F83D207B6800221A637B680022AD
:1032800083F83E20002318461037BD4680BD00BF9E
:10329000A08601007F841E00FF083D0083DE1B43E3
:1032A000D34D621080B588B002AFF8607A601A46DC
:1032B0000B467B8113463B81FEF7A0FE7861FB68DD
:1032C00093F83D30DBB2202B40F0E0807B69009327
:1032D000192301227049F86800F064F90346002BB5
:1032E00001D00223D3E0FB6893F83C30012B01D1DD
:1032F0000223CCE0FB68012283F83C20FB681B68BA
:103300001B6803F00103012B07D0FB681B681A68D8
:10331000FB681B6842F001021A60FB681B681A68B0
:10332000FB681B6822F400621A60FB68212283F8A4
:103330003D20FB68102283F83E20FB6800221A64BF
:10334000FB687A685A62FB683A895A85FB685B8D2C
:103350009AB2FB681A85FB68504ADA6279897B6900
:103360003A6AF86800F09CF80346002B01D001236C
:103370008DE000233B61FB681B685B693B61FB6878
:103380001B689B693B613B6966E07A69396AF8684A
:1033900000F0DEF90346002B0DD0FB681B6C042BFC
:1033A00007D1FB681B681A68FB681B6842F400724F
:1033B0001A6001236BE0FB685B6A1A78FB681B6884
:1033C0001A61FB685B6A5A1CFB685A62FB685B8D7A
:1033D0009BB2013B9AB2FB685A85FB681B8D013B8F
:1033E0009AB2FB681A85FB681B685B6903F00403EB
:1033F000042B1BD1FB681B8D002B17D0FB685B6A6D
:103400001A78FB681B681A61FB685B6A5A1CFB68C8
:103410005A62FB685B8D9BB2013B9AB2FB685A858E
:10342000FB681B8D013B9AB2FB681A857A69396A81
:10343000F86800F0CEF90346002B0DD0FB681B6C3A
:10344000042B07D1FB681B681A68FB681B6842F4F1
:1034500000721A6001231AE0FB681B8D002B94D1C7
:10346000FB681B681A68FB681B6842F400721A60EC
:10347000FB68202283F83D20FB68002283F83E2071
:10348000FB68002283F83C20002300E0022318465A
:103490001837BD4680BD00BF020010000000FFFFCE
:1034A00080B588B002AFF8607A603B600B467B81E4
:1034B000FB68DB6A7B617B69082B06D07B69012B8B
:1034C00003D07B6913F5803F08D1FB681B681A683D
:1034D000FB681B6842F480721A600BE0FB681B6B90
:1034E000122B07D1FB681B681A68FB681B6842F443
:1034F00080721A603B6800937B6800224FF00111D4
:10350000F86800F04FF80346002B0DD0FB681B68ED
:103510001B6803F48073B3F5807F03D1FB684FF41D
:1035200000721A64032335E0FB681B69B3F5804F12
:1035300008D17B89DBB21A46FB681B6802F0FE02E9
:103540001A611BE07B89DB11DBB203F00603DBB2FF
:1035500063F00F03DAB2FB681B681A613B687A6894
:103560000E49F86800F075F80346002B01D00123DE
:1035700010E07B89DAB2FB681B681A613B687A68E5
:103580000749F86800F065F80346002B01D00123D5
:1035900000E0002318461837BD4680BD0800010032
:1035A0000200010080B584B000AFF860B9603B60F4
:1035B0001346FB7125E03B68B3F1FF3F21D0FEF7D6
:1035C0001DFD0246BB69D31A3A689A4202D33B6892
:1035D000002B16D1FB6800221A63FB68202283F8B7
:1035E0003D20FB68002283F83E20FB681B6C43F003
:1035F0002002FB681A64FB68002283F83C20012348
:1036000023E0BB681B0CDBB2012B0DD1FB681B68F0
:103610005B69DA43BB6813409BB2002B0CBF0123EC
:103620000023DBB21A460CE0FB681B689B69DA4397
:10363000BB6813409BB2002B0CBF01230023DBB2FD
:103640001A46FB799A42B6D0002318461037BD4679
:1036500080BD80B584B000AFF860B9607A603B602F
:1036600051E0FB681B685B6903F48063B3F5806F0E
:1036700023D1FB681B681A68FB681B6842F4007260
:103680001A60FB681B686FF480625A61FB68002255
:103690001A63FB68202283F83D20FB68002283F830
:1036A0003E20FB681B6C43F00402FB681A64FB6855
:1036B000002283F83C20012346E07B68B3F1FF3F02
:1036C00021D0FEF79BFC02463B68D31A7A689A42E7
:1036D00002D37B68002B16D1FB6800221A63FB68BB
:1036E000202283F83D20FB68002283F83E20FB68FF
:1036F0001B6C43F02002FB681A64FB68002283F80D
:103700003C20012320E0BB681B0CDBB2012B0CD159
:10371000FB681B685B69DA43BB6813409BB2002BF4
:1037200014BF01230023DBB20BE0FB681B689B691D
:10373000DA43BB6813409BB2002B14BF0123002364
:10374000DBB2002B8DD1002318461037BD4680BD5B
:1037500080B584B000AFF860B9607A602DE0F86899
:1037600000F078F80346002B01D001232DE0BB6860
:10377000B3F1FF3F21D0FEF741FC02467B68D31A2C
:10378000BA689A4202D3BB68002B16D1FB680022AC
:103790001A63FB68202283F83D20FB68002283F82F
:1037A0003E20FB681B6C43F02002FB681A64FB6838
:1037B000002283F83C20012307E0FB681B685B695B
:1037C00003F08003802BCAD1002318461037BD4672
:1037D00080BD80B584B000AFF860B9607A602DE03C
:1037E000F86800F037F80346002B01D001232DE0E4
:1037F000BB68B3F1FF3F21D0FEF700FC02467B68B7
:10380000D31ABA689A4202D3BB68002B16D1FB6860
:1038100000221A63FB68202283F83D20FB68002207
:1038200083F83E20FB681B6C43F02002FB681A649F
:10383000FB68002283F83C20012307E0FB681B683B
:103840005B6903F00403042BCAD100231846103728
:10385000BD4680BD80B483B000AF78607B681B68D4
:103860005B6903F48063B3F5806F1BD17B681B68D1
:103870006FF480625A617B6800221A637B682022A1
:1038800083F83D207B68002283F83E207B681B6C18
:1038900043F004027B681A647B68002283F83C20B2
:1038A000012300E0002318460C37BD4680BC70475A
:1038B00080B586B000AF78607B68002B01D1012312
:1038C00072E27B681B6803F00103002B00F0878025
:1038D000924B5B6803F00C03042B0CD08F4B5B689E
:1038E00003F00C03082B12D18C4B5B6803F480337C
:1038F000B3F5803F0BD1894B1B6803F40033002BD9
:103900006CD07B685B68002B68D101234CE27B683C
:103910005B68B3F5803F06D1804B1B687F4A43F458
:10392000803313602EE07B685B68002B0CD17B4BEF
:103930001B687A4A23F480331360784B1B68774AFC
:1039400023F4802313601DE07B685B68B3F5A02F30
:103950000CD1724B1B68714A43F4802313606F4B88
:103960001B686E4A43F4803313600BE06B4B1B689B
:103970006A4A23F480331360684B1B68674A23F458
:10398000802313607B685B68002B13D0FEF736FB47
:10399000386108E0FEF732FB02463B69D31A642B1C
:1039A00001D9032300E25D4B1B6803F40033002BB5
:1039B000F0D014E0FEF722FB386108E0FEF71EFBB2
:1039C00002463B69D31A642B01D90323ECE1534B24
:1039D0001B6803F40033002BF0D100E000BF7B68CC
:1039E0001B6803F00203002B63D04C4B5B6803F0B1
:1039F0000C03002B0BD0494B5B6803F00C03082B26
:103A00001CD1464B5B6803F48033002B16D1434B2B
:103A10001B6803F00203002B05D07B681B69012B98
:103A200001D00123C0E13D4B1B6823F0F8027B6805
:103A30005B69DB00394913430B603AE07B681B6923
:103A4000002B20D0364B01221A60FEF7D7FA3861DE
:103A500008E0FEF7D3FA02463B69D31A022B01D9DC
:103A60000323A1E12D4B1B6803F00203002BF0D0D0
:103A70002A4B1B6823F0F8027B685B69DB0027494F
:103A800013430B6015E0264B00221A60FEF7B6FACE
:103A9000386108E0FEF7B2FA02463B69D31A022BFE
:103AA00001D9032380E11D4B1B6803F00203002BA7
:103AB000F0D17B681B6803F00803002B3AD07B68C9
:103AC0009B69002B19D0174B01221A60FEF796FA5A
:103AD000386108E0FEF792FA02463B69D31A022BDE
:103AE00001D9032360E10D4B5B6A03F00203002B55
:103AF000F0D0012000F0D8FA1CE00A4B00221A6036
:103B0000FEF77CFA38610FE0FEF778FA02463B696F
:103B1000D31A022B08D9032346E100BF001002404C
:103B20000000424280044242924B5B6A03F002036F
:103B3000002BE9D17B681B6803F00403002B00F025
:103B4000A6800023FB758B4BDB6903F08053002BB1
:103B50000DD1884BDB69874A43F08053D361854B95
:103B6000DB6903F08053BB60BB680123FB75824BAC
:103B70001B6803F48073002B18D17F4B1B687E4AAF
:103B800043F480731360FEF739FA386108E0FEF7FA
:103B900035FA02463B69D31A642B01D9032303E1AA
:103BA000754B1B6803F48073002BF0D07B68DB68D7
:103BB000012B06D16F4B1B6A6E4A43F0010313625F
:103BC0002DE07B68DB68002B0CD16A4B1B6A694ACD
:103BD00023F001031362674B1B6A664A23F0040358
:103BE00013621CE07B68DB68052B0CD1614B1B6A00
:103BF000604A43F0040313625E4B1B6A5D4A43F064
:103C0000010313620BE05B4B1B6A5A4A23F001036A
:103C10001362584B1B6A574A23F0040313627B68F4
:103C2000DB68002B15D0FEF7E9F938610AE0FEF7F2
:103C3000E5F902463B69D31A41F28832934201D931
:103C40000323B1E04B4B1B6A03F00203002BEED0C1
:103C500014E0FEF7D3F938610AE0FEF7CFF9024627
:103C60003B69D31A41F28832934201D903239BE086
:103C7000404B1B6A03F00203002BEED1FB7D012BAE
:103C800005D13C4BDB693B4A23F08053D3617B6811
:103C9000DB69002B00F08780364B5B6803F00C0378
:103CA000082B61D07B68DB69022B46D1334B0022A5
:103CB0001A60FEF7A3F9386108E0FEF79FF90246A3
:103CC0003B69D31A022B01D903236DE0294B1B68F2
:103CD00003F00073002BF0D17B681B6AB3F5803FC3
:103CE00008D1244B5B6823F400327B689B68214930
:103CF00013434B601F4B5B6823F474127B68196A93
:103D00007B685B6A0B431B4913434B601B4B0122CF
:103D10001A60FEF773F9386108E0FEF76FF90246A2
:103D20003B69D31A022B01D903233DE0114B1B68D9
:103D300003F00073002BF0D035E0104B00221A6026
:103D4000FEF75CF9386108E0FEF758F902463B6976
:103D5000D31A022B01D9032326E0064B1B6803F07C
:103D60000073002BF0D11EE07B68DB69012B07D1CB
:103D7000012319E000100240007000406000424240
:103D80000B4B5B68FB60FB6803F480327B681B6A4B
:103D90009A4206D1FB6803F470127B685B6A9A4210
:103DA00001D0012300E0002318461837BD4680BD2E
:103DB0000010024080B584B000AF786039607B6845
:103DC000002B01D10123D0E06A4B1B6803F00703ED
:103DD0003A689A4210D9674B1B6823F0070265497D
:103DE0003B6813430B60634B1B6803F007033A689F
:103DF0009A4201D00123B8E07B681B6803F00203FC
:103E0000002B20D07B681B6803F00403002B05D037
:103E1000594B5B68584A43F4E06353607B681B6806
:103E200003F00803002B05D0534B5B68524A43F460
:103E300060535360504B5B6823F0F0027B689B68D3
:103E40004D4913434B607B681B6803F00103002B53
:103E500040D07B685B68012B07D1474B1B6803F49C
:103E60000033002B15D101237FE07B685B68022BB8
:103E700007D1414B1B6803F00073002B09D10123CC
:103E800073E03D4B1B6803F00203002B01D10123BB
:103E90006BE0394B5B6823F003027B685B68364953
:103EA00013434B60FEF7AAF8F8600AE0FEF7A6F8A5
:103EB0000246FB68D31A41F28832934201D90323A8
:103EC00053E02D4B5B6803F00C027B685B689B0042
:103ED0009A42EBD1274B1B6803F007033A689A42DA
:103EE00010D2244B1B6823F0070222493B6813437E
:103EF0000B60204B1B6803F007033A689A4201D01D
:103F0000012332E07B681B6803F00403002B08D018
:103F1000194B5B6823F4E0627B68DB681649134346
:103F20004B607B681B6803F00803002B09D0124B21
:103F30005B6823F460527B681B69DB000E49134306
:103F40004B6000F021F802460B4B5B681B0903F045
:103F50000F030A49CB5C22FA03F3094A1360094BA9
:103F60001B681846FEF708F8002318461037BD46B0
:103F700080BD00BF0020024000100240BC87000846
:103F8000040000200800002090B48AB000AF294B44
:103F90003C1D0FCB84E80F0040F201233B8000233F
:103FA000FB610023BB6100237B6200237B61002354
:103FB0003B62214B5B68FB61FB6903F00C03042B44
:103FC00002D0082B03D02BE01C4B3B622BE0FB699B
:103FD0009B0C03F00F0328333B4413F8243C7B6114
:103FE000FB6903F48033002B12D0134B5B685B0C2E
:103FF00003F0010328333B4413F8283CBB617B6981
:104000000E4A03FB02F2BB69B2FBF3F37B6204E0EE
:104010007B690B4A02FB03F37B627B6A3B6202E033
:10402000064B3B6200BF3B6A18462837BD4690BC32
:10403000704700BF948700080010024000127A0009
:1040400000093D0080B400AF024B1B681846BD4616
:1040500080BC70470400002080B500AFFFF7F2FF7E
:104060000246054B5B681B0A03F007030349CB5C60
:1040700022FA03F3184680BD00100240CC870008E6
:1040800080B500AFFFF7DEFF0246054B5B68DB0A39
:1040900003F007030349CB5C22FA03F3184680BD03
:1040A00000100240CC87000880B485B000AF786073
:1040B0000A4B1B680A4AA2FB03235B0A7A6802FBCD
:1040C00003F3FB6000BFFB685A1EFA60002BF9D1B6
:1040D00000BF00BF1437BD4680BC704704000020FD
:1040E000D34D621080B586B000AF786000233B618D
:1040F0000023FB607B681B6803F00103002B7DD06D
:104100000023FB754F4BDB6903F08053002B0DD16F
:104110004C4BDB694B4A43F08053D361494BDB691D
:1041200003F08053BB60BB680123FB75464B1B68E3
:1041300003F48073002B18D1434B1B68424A43F4AD
:1041400080731360FDF75AFF386108E0FDF756FFF2
:1041500002463B69D31A642B01D903236DE03A4B25
:104160001B6803F48073002BF0D0364B1B6A03F4FA
:104170004073FB60FB68002B2ED07B685B6803F408
:104180004073FA689A4227D02E4B1B6A23F440737F
:10419000FB602E4B01221A602C4B00221A60294A28
:1041A000FB681362FB6803F00103002B14D0FDF7DA
:1041B00025FF38610AE0FDF721FF02463B69D31A6B
:1041C00041F28832934201D9032336E01D4B1B6A2A
:1041D00003F00203002BEED01A4B1B6A23F440724B
:1041E0007B685B68174913430B62FB7D012B05D18C
:1041F000144BDB69134A23F08053D3617B681B683F
:1042000003F00203002B08D00E4B5B6823F44042FE
:104210007B689B680B4913434B607B681B6803F00A
:104220001003002B08D0074B5B6823F480027B68E7
:10423000DB68044913434B60002318461837BD461A
:1042400080BD00BF001002400070004040044242A8
:1042500090B58DB000AF7860584B07F10C040FCBD0
:1042600084E80F0040F201233B8100237B6200239E
:10427000FB6200233B620023FB610023BB627B687F
:10428000102B0AD07B68102B00F28E807B68012BEC
:1042900049D07B68022B79D086E0494B5B68FB6193
:1042A000474B1B6803F08073002B7FD0FB699B0C8E
:1042B00003F00F0330333B4413F8243C3B62FB69AB
:1042C00003F48033002B17D03D4B5B685B0C03F08D
:1042D000010330333B4413F8283C7B62FB6903F451
:1042E0008033002B0DD0374A7B6AB2FBF3F23B6A76
:1042F00002FB03F3FB6204E03B6A334A02FB03F375
:10430000FB622F4B5B6803F48003B3F5800F02D18F
:10431000FB6ABB624AE0FB6A5B002C4AA2FB0323F8
:104320005B08BB6242E0264B1B6AFB61FB6903F43E
:104330004073B3F5807F08D1FB6903F00203002BC3
:1043400003D04FF40043BB621FE0FB6903F44073EA
:10435000B3F5007F09D11A4B5B6A03F00203002B0F
:1043600003D049F64043BB620FE0FB6903F440739E
:10437000B3F5407F1CD1124B1B6803F40033002BB4
:1043800016D04FF22443BB6212E011E0FFF778FE33
:1043900002460B4B5B689B0B03F0030301335B008E
:1043A000B2FBF3F3BB6204E000BF02E000BF00E039
:1043B00000BFBB6A18463437BD4690BDA4870008CD
:1043C0000010024000127A0000093D00ABAAAAAA20
:1043D00080B582B000AF78607B68002B01D10123EB
:1043E00041E07B6893F83D30DBB2002B06D17B685F
:1043F000002283F83C207868FDF79CFC7B68022251
:1044000083F83D207B681A687B68043319461046A0
:1044100000F062F97B68012283F846207B68012264
:1044200083F83E207B68012283F83F207B680122CD
:1044300083F840207B68012283F841207B680122B9
:1044400083F842207B68012283F843207B680122A5
:1044500083F844207B68012283F845207B68012291
:1044600083F83D20002318460837BD4680BD000074
:1044700080B485B000AF78607B6893F83D30DBB2E4
:10448000012B01D0012332E07B68022283F83D201A
:104490007B681B68184A93420ED07B681B68B3F197
:1044A000804F09D07B681B68144A934204D07B6814
:1044B0001B68134A934211D17B681B689B6803F009
:1044C0000703FB60FB68062B10D07B681B681A682B
:1044D0007B681B6842F001021A6007E07B681B687A
:1044E0001A687B681B6842F001021A6000231846B4
:1044F0001437BD4680BC7047002C014000040040CA
:104500000008004080B483B000AF78607B681B680F
:104510001A6A41F211131340002B0FD17B681B68FC
:104520001A6A40F244431340002B07D17B681B6892
:104530001A687B681B6822F001021A607B680122FE
:1045400083F83D20002318460C37BD4680BC7047D9
:1045500080B584B000AF786039607B6893F83C30F8
:10456000012B01D10223B3E07B68012283F83C20B8
:104570007B68022283F83D207B681B689B68FB6098
:10458000FB6823F07703FB60FB6823F47F43FB6049
:104590007B681B68FA689A603B681B68B3F5005F2C
:1045A0003ED0B3F5005F00F28780B3F5805F00F086
:1045B0008580B3F5805F7FD8702B1AD0702B7BD8A5
:1045C000602B50D0602B77D8502B3CD0502B73D819
:1045D000402B58D0402B6FD8302B64D0302B6BD869
:1045E000202B60D0202B67D8002B5CD0102B5AD00A
:1045F00062E07B6818683B6899683B685A683B686A
:10460000DB6800F042F97B681B689B68FB60FB6815
:1046100043F07703FB607B681B68FA689A604EE0A2
:104620007B6818683B6899683B685A683B68DB6838
:1046300000F02BF97B681B689A687B681B6842F462
:1046400080429A603BE07B6818683B6859683B6829
:10465000DB681A4600F0A2F87B681B6850211846F8
:1046600000F0F9F82BE07B6818683B6859683B68F4
:10467000DB681A4600F0C0F87B681B6860211846AA
:1046800000F0E9F81BE07B6818683B6859683B68F4
:10469000DB681A4600F082F87B681B6840211846E8
:1046A00000F0D9F80BE07B681A683B681B68194674
:1046B000104600F0D0F802E000BF00E000BF7B68C9
:1046C000012283F83D207B68002283F83C200023F0
:1046D00018461037BD4680BD80B485B000AF786005
:1046E00039607B681B68FB607B68294A93420BD06A
:1046F0007B68B3F1804F07D07B68264A934203D092
:104700007B68254A934208D1FB6823F07003FB6065
:104710003B685B68FA681343FB607B681C4A934202
:104720000BD07B68B3F1804F07D07B68194A934266
:1047300003D07B68184A934208D1FB6823F4407386
:10474000FB603B68DB68FA681343FB60FB6823F09F
:1047500080023B685B691343FB607B68FA681A6000
:104760003B689A687B68DA623B681A687B689A6281
:104770007B68074A934203D13B681A697B681A63D6
:104780007B6801225A6100BF1437BD4680BC704768
:10479000002C0140000400400008004080B487B0B5
:1047A00000AFF860B9607A60FB681B6A7B61FB68E8
:1047B0001B6A23F00102FB681A62FB689B693B617C
:1047C0003B6923F0F0033B617B681B013A691343AB
:1047D0003B617B6923F00A037B617A69BB68134301
:1047E0007B61FB683A699A61FB687A691A6200BF6B
:1047F0001C37BD4680BC704780B487B000AFF860FE
:10480000B9607A60FB681B6A23F01002FB681A62C9
:10481000FB689B697B61FB681B6A3B617B6923F4D6
:1048200070437B617B681B037A6913437B613B693F
:1048300023F0A0033B61BB681B013A6913433B6152
:10484000FB687A699A61FB683A691A6200BF1C3793
:10485000BD4680BC704780B485B000AF78603960D9
:104860007B689B68FB60FB6823F07003FB603A6821
:10487000FB68134343F00703FB607B68FA689A60A8
:1048800000BF1437BD4680BC704780B487B000AF0E
:10489000F860B9607A603B60FB689B687B617B690C
:1048A00023F47F437B613B681A027B681A43BB6831
:1048B00013437A6913437B61FB687A699A6000BF8E
:1048C0001C37BD4680BC704780B485B000AF7860AF
:1048D00039607B6893F83C30012B01D1022346E01C
:1048E0007B68012283F83C207B68022283F83D200C
:1048F0007B681B685B68FB607B681B689B68BB60B0
:10490000FB6823F07003FB603B681B68FA68134385
:10491000FB607B681B68FA685A607B681B68164AF4
:1049200093420ED07B681B68B3F1804F09D07B683F
:104930001B68124A934204D07B681B68104A93425A
:104940000CD1BB6823F08003BB603B685B68BA682E
:104950001343BB607B681B68BA689A607B6801225E
:1049600083F83D207B68002283F83C200023184612
:104970001437BD4680BC7047002C01400004004045
:104980000008004080B582B000AF78607B68002BE3
:1049900001D101233FE07B6893F83D30DBB2002B6F
:1049A00006D17B68002283F83C207868FDF7DEF9A9
:1049B0007B68242283F83D207B681B68DA687B686B
:1049C0001B6822F40052DA60786800F087FC7B688C
:1049D0001B681A697B681B6822F490421A617B6825
:1049E0001B685A697B681B6822F02A025A617B683F
:1049F0001B68DA687B681B6842F40052DA607B68E7
:104A000000221A647B68202283F83D207B682022E4
:104A100083F83E20002318460837BD4680BD80B588
:104A20008AB002AFF860B9603B601346FB80002398
:104A30007B61FB6893F83D30DBB2202B7CD1BB68F7
:104A4000002B02D0FB88002B01D1012375E0FB680D
:104A500093F83C30012B01D102236EE0FB68012268
:104A600083F83C20FB6800221A64FB68212283F84B
:104A70003D20FDF7C3FA7861FB68FA889A84FB68E9
:104A8000FA88DA84FB689B68B3F5805F08D1FB681D
:104A90001B69002B04D10023FB61BB68BB6103E0F1
:104AA000BB68FB610023BB61FB68002283F83C20EC
:104AB0002AE03B6800937B6900228021F86800F0BF
:104AC00038FA0346002B01D0032336E0FB69002BA4
:104AD0000BD1BB691B881A46FB681B68C2F308022E
:104AE0005A60BB690233BB6107E0FB691A78FB6857
:104AF0001B685A60FB690133FB61FB68DB8C9BB26E
:104B0000013B9AB2FB68DA84FB68DB8C9BB2002B1A
:104B1000CFD13B6800937B6900224021F86800F008
:104B200008FA0346002B01D0032306E0FB6820228D
:104B300083F83D20002300E0022318462037BD46BD
:104B400080BD80B584B000AFF860B9601346FB80CB
:104B5000FB6893F83E30DBB2202B1DD1BB68002BE5
:104B600002D0FB88002B01D1012316E0FB6893F8EB
:104B70003C30012B01D102230FE0FB68012283F8B6
:104B80003C20FB6800221A63FB881A46B968F86863
:104B900000F019FA034600E0022318461037BD461C
:104BA00080BD000080B58AB000AF78607B681B686C
:104BB0001B687B627B681B68DB683B627B681B68E9
:104BC0005B69FB610023BB6100237B617B6A03F0AF
:104BD0000F03BB61BB69002B0DD17B6A03F020037F
:104BE000002B08D03B6A03F02003002B03D0786829
:104BF00000F0C9FA7BE1BB69002B00F0B180FB69D2
:104C000003F00103002B05D13B6A03F49073002BE2
:104C100000F0A6807B6A03F00103002B0AD03B6AF8
:104C200003F48073002B05D07B681B6C43F00102FA
:104C30007B681A647B6A03F00403002B0AD0FB69CB
:104C400003F00103002B05D07B681B6C43F00202CC
:104C50007B681A647B6A03F00203002B0AD0FB69AD
:104C600003F00103002B05D07B681B6C43F00402AA
:104C70007B681A647B6A03F00803002B0FD03B6A41
:104C800003F02003002B04D1FB6903F00103002B88
:104C900005D07B681B6C43F008027B681A647B6854
:104CA0001B6C002B00F01E817B6A03F02003002B9D
:104CB00007D03B6A03F02003002B02D0786800F095
:104CC00062FA7B681B685B6903F04003002B14BF2A
:104CD00001230023DBB27B617B681B6C03F00803BC
:104CE000002B02D17B69002B31D0786800F0A4F949
:104CF0007B681B685B6903F04003002B23D07B6853
:104D00001B685A697B681B6822F040025A617B6805
:104D10009B6B002B13D07B689B6B764A5A637B6836
:104D20009B6B1846FDF738FF0346002B16D07B68B7
:104D30009B6B5B6B7A68926B104698470EE07868C5
:104D400000F0E3F80AE0786800F0DFF806E0786841
:104D500000F0DBF87B6800221A64C3E000BFC1E00A
:104D60007B681B6B012B40F0A1807B6A03F0100372
:104D7000002B00F09B803B6A03F01003002B00F037
:104D800095800023FB607B681B681B68FB607B6869
:104D90001B685B68FB60FB687B681B685B6903F0F2
:104DA0004003002B4ED07B689B6B1B685B683B828B
:104DB0003B8A002B00F098807B689B8D3A8A9A4250
:104DC00080F092807B683A8ADA857B689B6B9B696E
:104DD000202B2BD07B681B68DA687B681B6822F469
:104DE0008072DA607B681B685A697B681B6822F0F6
:104DF00001025A617B681B685A697B681B6822F054
:104E000040025A617B68202283F83E207B680022A2
:104E10001A637B681B68DA687B681B6822F01002E3
:104E2000DA607B689B6B1846FDF77BFE7B689A8D8A
:104E30007B68DB8D9BB2D31A9BB21946786800F071
:104E40006DF851E07B689A8D7B68DB8D9BB2D31A3D
:104E50007B827B68DB8D9BB2002B47D07B8A002B4B
:104E600044D07B681B68DA687B681B6822F4907208
:104E7000DA607B681B685A697B681B6822F0010254
:104E80005A617B68202283F83E207B6800221A63E7
:104E90007B681B68DA687B681B6822F01002DA60A6
:104EA0007B8A1946786800F039F81FE07B6A03F0C6
:104EB0008003002B08D03B6A03F08003002B03D053
:104EC000786800F0F9F812E07B6A03F04003002BE9
:104ED0000DD03B6A03F04003002B08D0786800F047
:104EE0003AF904E000BF02E000BF00E000BF28374D
:104EF000BD4680BD9150000880B483B000AF78609B
:104F000000BF0C37BD4680BC704780B483B000AF93
:104F1000786000BF0C37BD4680BC704780B483B05A
:104F200000AF78600B467B8000BF0C37BD4680BC6D
:104F3000704780B584B000AFF860B9603B6013463D
:104F4000FB712CE0BB69B3F1FF3F28D0BB69002B9C
:104F500007D0FDF753F802463B68D31ABA699A4264
:104F60001DD2FB681B68DA68FB681B6822F4D072EC
:104F7000DA60FB681B685A69FB681B6822F0010253
:104F80005A61FB68202283F83D20FB68202283F8C9
:104F90003E20FB68002283F83C2003230FE0FB68DF
:104FA0001B681A68BB681340BA689A420CBF012399
:104FB0000023DBB21A46FB799A42C3D0002318467D
:104FC0001037BD4680BD80B485B000AFF860B960D1
:104FD0001346FB80FB68BA689A62FB68FA889A8578
:104FE000FB68FA88DA85FB6800221A64FB682222D3
:104FF00083F83E20FB68002283F83C20FB681B6896
:10500000DA68FB681B6842F48072DA60FB681B6830
:105010005A69FB681B6842F001025A61FB681B6811
:10502000DA68FB681B6842F02002DA600023184649
:105030001437BD4680BC704780B483B000AF786041
:105040007B681B68DA687B681B6822F49072DA6000
:105050007B681B685A697B681B6822F001025A61F1
:105060007B681B6B012B07D17B681B68DA687B6848
:105070001B6822F01002DA607B68202283F83E2051
:105080007B6800221A6300BF0C37BD4680BC7047A6
:1050900080B584B000AF78607B685B6AFB60FB68BA
:1050A0000022DA85FB680022DA84F868FFF72DFF1A
:1050B00000BF1037BD4680BD80B485B000AF7860BA
:1050C0007B6893F83D30DBB2212B3ED17B689B6837
:1050D000B3F5805F14D17B681B69002B10D17B680E
:1050E0001B6AFB60FB681B881A467B681B68C2F35F
:1050F00008025A607B681B6A9A1C7B681A6208E087
:105100007B681B6A591C7A6811621A787B681B6875
:105110005A607B68DB8C9BB2013B9BB27A68194674
:10512000D184002B0FD17B681B68DA687B681B6811
:1051300022F08002DA607B681B68DA687B681B6893
:1051400042F04002DA60002300E0022318461437E0
:10515000BD4680BC704780B582B000AF78607B6888
:105160001B68DA687B681B6822F04002DA607B68A3
:10517000202283F83D207868FFF7BEFE0023184602
:105180000837BD4680BD80B586B000AF78607B68CB
:1051900093F83E30DBB2222B40F09B807B689B680B
:1051A000B3F5805F17D17B681B69002B13D10023F7
:1051B0007B617B689B6A3B617B681B685B689BB219
:1051C000C3F308039AB23B691A807B689B6A9A1CF6
:1051D0007B689A6226E07B689B6A7B6100233B6167
:1051E0007B689B68B3F5805F07D07B689B68002B6A
:1051F0000AD17B681B69002B06D17B681B685B6842
:10520000DAB27B691A7008E07B681B685B68DBB206
:1052100003F07F03DAB27B691A707B689B6A5A1CC1
:105220007B689A627B689B6A023B1B786F2B4ED12E
:105230007B689B6A013B1B786B2B48D17B681B68A2
:10524000DA687B681B6822F02002DA607B681B68E2
:10525000DA687B681B6822F48072DA607B681B68FE
:105260005A697B681B6822F001025A617B68202220
:1052700083F83E207B681B6B012B23D17B680022C7
:105280001A637B681B68DA687B681B6822F010026F
:10529000DA607B681B681B6803F01003102B0AD1CF
:1052A0000023FB607B681B681B68FB607B681B68D6
:1052B0005B68FB60FB687B689B8D19467868FFF72D
:1052C0002DFE02E07868FCF7AFF8002302E000232F
:1052D00000E0022318461837BD4680BD80B584B073
:1052E00000AF78607B681B681B6923F440517B68C2
:1052F000DA687B681B680A431A617B689A687B6876
:105300001B691A437B685B691343BB607B681B683E
:10531000DB6823F4B05323F00C037A681268B96891
:105320000B43D3607B681B685B6923F440717B6827
:105330009A697B681B680A435A617B681B682C4A20
:10534000934203D1FEF79CFEF86002E0FEF784FE74
:10535000F860FA6813469B0013449A001A447B686D
:105360005B689B00B2FBF3F3224AA2FB03235B09B9
:105370001901FA6813469B0013449A001A447B688B
:105380005B689B00B2FBF3F21A4BA3FB02035B09C1
:10539000642000FB03F3D31A1B013233154AA2FB2E
:1053A00003235B0903F0F0031944FA6813469B00DA
:1053B00013449A001A447B685B689B00B2FBF3F2CB
:1053C0000C4BA3FB02035B09642000FB03F3D31A1D
:1053D0001B013233074AA2FB03235B0903F00F02D0
:1053E0007B681B680A449A6000BF1037BD4680BDC9
:1053F000003801401F85EB5180B485B000AF0346F3
:10540000FB800023FB60B7F90630842B05D0B7F989
:105410000620FB6813440333FB60FB68184614370F
:10542000BD4680BC704780B483B000AFEFF3058306
:105430007B607B68002B14BF01230023DBB218467E
:105440000C37BD4680BC704780B500AF01F042F913
:105450000023184680BDF0B589B004AF786039608C
:105460007B685B69002B20D07B689B69002B1CD07C
:105470007B685C687B681D687B681E697B68B3F924
:1054800008301846FFF7B8FF01467B685B697A6809
:1054900092690292019300913B6832462946204668
:1054A00000F043FF0346FB601CE07B685C687B68A0
:1054B0001D687B681B699EB27B68B3F9083018468B
:1054C000FFF79AFF024607F10C03019300923B6835
:1054D00032462946204600F084FF0346012B01D0C6
:1054E000002300E0FB6818461437BD46F0BD80B5C8
:1054F00084B000AF78607B68FB60FB68002B01D054
:10550000FB6800E00123184601F0B0F800231846BC
:105510001037BD4680BD80B586B002AF7860396077
:105520007B685B68002B0FD03B68012B0AD17B683E
:105530005B680322009200220021012000F0E2F9C2
:10554000034616E0002314E03B68012B10D1032230
:105550000021012000F04DFAF860FB68002B05D017
:10556000002300220021F86800F0A0FAFB6800E0A8
:10557000002318461037BD4680BD000080B584B0BA
:1055800000AF786039600023BB607B68002B01D1DD
:1055900080233AE00023FB603B68B3F1FF3F03D177
:1055A0004FF0FF33FB6009E03B68002B06D03B68FF
:1055B000FB60FB68002B01D10123FB60FFF733FF89
:1055C0000346002B17D007F108031A46002178681C
:1055D00000F004FD0346012B01D0FF2315E0BB685A
:1055E000002B11D00B4B4FF080521A60BFF34F8F3E
:1055F000BFF36F8F08E0F968786800F0E3FB0346BB
:10560000012B01D0FF2300E0002318461037BD46D0
:1056100080BD00BF04ED00E080B584B000AF7860CD
:105620000023FB600023BB60FFF7FDFE0346002B59
:1056300016D007F108031946786800F035FB0346D9
:10564000012B01D0FF2317E0BB68002B13D00C4BBC
:105650004FF080521A60BFF34F8FBFF36F8F0AE095
:10566000002300220021786800F020FA0346012B75
:1056700001D0FF23FB60FB6818461037BD4680BD94
:1056800004ED00E090B585B002AF786039607B68CA
:105690009B68002B11D07B68DB68002B0DD07B68EA
:1056A00018687B6859687B689A687B68DB680024A7
:1056B000009400F027F9034608E07B6818687B68CF
:1056C0005B680022194600F094F9034618460C372F
:1056D000BD4690BD80B483B000AF78607B6803F1B5
:1056E00008027B685A607B684FF0FF329A607B68E3
:1056F00003F108027B68DA607B6803F108027B68CB
:105700001A617B6800221A6000BF0C37BD4680BC5E
:10571000704780B483B000AF78607B6800221A6164
:1057200000BF0C37BD4680BC704780B485B000AF69
:10573000786039607B685B68FB603B68FA685A6038
:10574000FB689A683B689A60FB689B683A685A6095
:10575000FB683A689A603B687A681A617B681B68E4
:105760005A1C7B681A6000BF1437BD4680BC704766
:1057700080B485B000AF786039603B681B68BB605F
:10578000BB68B3F1FF3F03D17B681B69FB600CE092
:105790007B680833FB6002E0FB685B68FB60FB68CA
:1057A0005B681B68BA689A42F6D2FB685A683B6825
:1057B0005A603B685B683A689A603B68FA689A602E
:1057C000FB683A685A603B687A681A617B681B68B4
:1057D0005A1C7B681A6000BF1437BD4680BC7047F6
:1057E00080B485B000AF78607B681B69FB607B6824
:1057F0005B687A6892689A607B689B687A6852688E
:105800005A60FB685B687A689A4203D17B689A6841
:10581000FB685A607B6800221A61FB681B685A1E8D
:10582000FB681A60FB681B6818461437BD4680BCCD
:105830007047000080B584B000AF786039607B6845
:10584000FB60FB68002B0AD14FF0500383F31188F3
:10585000BFF36F8FBFF34F8FBB6000BFFEE701F058
:105860008DFEFB681A68FB68DB6BF968096C01FB4D
:1058700003F31A44FB685A60FB6800229A63FB68D2
:105880001A68FB689A60FB681A68FB68DB6B013B6F
:10589000F968096C01FB03F31A44FB68DA60FB68E2
:1058A000FF2283F84420FB68FF2283F845203B68F1
:1058B000002B14D1FB681B69002B1AD0FB68103336
:1058C000184601F05FF90346002B12D00C4B4FF045
:1058D00080521A60BFF34F8FBFF36F8F09E0FB68F0
:1058E00010331846FFF7F6FEFB6824331846FFF71F
:1058F000F1FE01F073FE012318461037BD4680BD4E
:1059000004ED00E080B58EB002AFF860B9607A6057
:105910003B60FB68002B0AD14FF0500383F31188E2
:10592000BFF36F8FBFF34F8FBB6200BFFEE73B68D3
:10593000002B0AD14FF0500383F31188BFF36F8F10
:10594000BFF34F8F7B6200BFFEE77B68002B02D066
:10595000BB68002B01D0012300E00023002B0AD1FB
:105960004FF0500383F31188BFF36F8FBFF34F8F56
:105970003B6200BFFEE77B68002B02D1BB68002BB7
:1059800001D1012300E00023002B0AD14FF0500386
:1059900083F31188BFF36F8FBFF34F8FFB6100BF9D
:1059A000FEE748237B617B69482B0AD04FF0500308
:1059B00083F31188BFF36F8FBFF34F8FBB6100BFBD
:1059C000FEE73B68FB62FB6A002B0DD0FB6A0122FD
:1059D00083F8462097F83820FB6A009313467A68CC
:1059E000B968F86800F043F8FB6A18463037BD46DE
:1059F00080BD80B58AB002AFF860B9601346FB7114
:105A0000FB68002B0AD14FF0500383F31188BFF3DA
:105A10006F8FBFF34F8F3B6100BFFEE7BB68002B6A
:105A200002D10023FB6104E0FB68BA6802FB03F3C8
:105A3000FB61FB694833184601F0A0FEB861BB6901
:105A4000002B0FD0BB6948337B61BB69002283F810
:105A50004620FA79BB69009313467A69B968F868F9
:105A600000F005F8BB6918462037BD4680BD80B5FB
:105A700084B000AFF860B9607A60FB70BB68002B3F
:105A800003D1BB69BA691A6002E0BB697A681A601F
:105A9000BB69FA68DA63BB69BA681A640121B8693C
:105AA000FFF7C8FE00BF1037BD4680BD80B58EB081
:105AB00000AFF860B9607A603B6000237B63FB68ED
:105AC0003B633B6B002B0AD14FF0500383F31188EB
:105AD000BFF36F8FBFF34F8FBB6200BFFEE7BB68A2
